{
  "_format": "hh-sol-artifact-1",
  "contractName": "DePoker",
  "sourceName": "contracts/DePoker.sol",
  "abi": [
    {
      "anonymous": false,
      "inputs": [
        {
          "indexed": true,
          "internalType": "uint256",
          "name": "roomId",
          "type": "uint256"
        },
        {
          "indexed": true,
          "internalType": "address",
          "name": "player",
          "type": "address"
        },
        {
          "indexed": false,
          "internalType": "uint256",
          "name": "amount",
          "type": "uint256"
        }
      ],
      "name": "Joined",
      "type": "event"
    },
    {
      "anonymous": false,
      "inputs": [
        {
          "indexed": true,
          "internalType": "uint256",
          "name": "roomId",
          "type": "uint256"
        },
        {
          "indexed": true,
          "internalType": "address",
          "name": "creator",
          "type": "address"
        },
        {
          "indexed": false,
          "internalType": "uint256",
          "name": "buyIn",
          "type": "uint256"
        }
      ],
      "name": "RoomCreated",
      "type": "event"
    },
    {
      "anonymous": false,
      "inputs": [
        {
          "indexed": true,
          "internalType": "uint256",
          "name": "roomId",
          "type": "uint256"
        },
        {
          "indexed": true,
          "internalType": "address",
          "name": "winner",
          "type": "address"
        },
        {
          "indexed": false,
          "internalType": "uint256",
          "name": "amount",
          "type": "uint256"
        }
      ],
      "name": "Settled",
      "type": "event"
    },
    {
      "anonymous": false,
      "inputs": [
        {
          "indexed": true,
          "internalType": "uint256",
          "name": "roomId",
          "type": "uint256"
        }
      ],
      "name": "Started",
      "type": "event"
    },
    {
      "anonymous": false,
      "inputs": [
        {
          "indexed": true,
          "internalType": "uint256",
          "name": "roomId",
          "type": "uint256"
        },
        {
          "indexed": true,
          "internalType": "address",
          "name": "voter",
          "type": "address"
        },
        {
          "indexed": true,
          "internalType": "address",
          "name": "candidate",
          "type": "address"
        }
      ],
      "name": "Voted",
      "type": "event"
    },
    {
      "inputs": [
        {
          "internalType": "uint256",
          "name": "_buyIn",
          "type": "uint256"
        }
      ],
      "name": "createRoom",
      "outputs": [
        {
          "internalType": "uint256",
          "name": "",
          "type": "uint256"
        }
      ],
      "stateMutability": "nonpayable",
      "type": "function"
    },
    {
      "inputs": [
        {
          "internalType": "uint256",
          "name": "roomId",
          "type": "uint256"
        },
        {
          "internalType": "address",
          "name": "candidate",
          "type": "address"
        }
      ],
      "name": "finalize",
      "outputs": [],
      "stateMutability": "nonpayable",
      "type": "function"
    },
    {
      "inputs": [
        {
          "internalType": "uint256",
          "name": "roomId",
          "type": "uint256"
        }
      ],
      "name": "getPlayers",
      "outputs": [
        {
          "internalType": "address[]",
          "name": "",
          "type": "address[]"
        }
      ],
      "stateMutability": "view",
      "type": "function"
    },
    {
      "inputs": [
        {
          "internalType": "uint256",
          "name": "roomId",
          "type": "uint256"
        }
      ],
      "name": "getRoom",
      "outputs": [
        {
          "internalType": "address",
          "name": "creator",
          "type": "address"
        },
        {
          "internalType": "uint256",
          "name": "buyIn",
          "type": "uint256"
        },
        {
          "internalType": "uint256",
          "name": "playerCount",
          "type": "uint256"
        },
        {
          "internalType": "uint256",
          "name": "totalPool",
          "type": "uint256"
        },
        {
          "internalType": "bool",
          "name": "started",
          "type": "bool"
        },
        {
          "internalType": "bool",
          "name": "settled",
          "type": "bool"
        },
        {
          "internalType": "address",
          "name": "winner",
          "type": "address"
        },
        {
          "internalType": "uint256",
          "name": "createdAt",
          "type": "uint256"
        }
      ],
      "stateMutability": "view",
      "type": "function"
    },
    {
      "inputs": [
        {
          "internalType": "uint256",
          "name": "",
          "type": "uint256"
        },
        {
          "internalType": "address",
          "name": "",
          "type": "address"
        }
      ],
      "name": "hasVoted",
      "outputs": [
        {
          "internalType": "bool",
          "name": "",
          "type": "bool"
        }
      ],
      "stateMutability": "view",
      "type": "function"
    },
    {
      "inputs": [
        {
          "internalType": "uint256",
          "name": "roomId",
          "type": "uint256"
        }
      ],
      "name": "joinRoom",
      "outputs": [],
      "stateMutability": "payable",
      "type": "function"
    },
    {
      "inputs": [
        {
          "internalType": "uint256",
          "name": "",
          "type": "uint256"
        },
        {
          "internalType": "address",
          "name": "",
          "type": "address"
        }
      ],
      "name": "joined",
      "outputs": [
        {
          "internalType": "bool",
          "name": "",
          "type": "bool"
        }
      ],
      "stateMutability": "view",
      "type": "function"
    },
    {
      "inputs": [],
      "name": "roomCount",
      "outputs": [
        {
          "internalType": "uint256",
          "name": "",
          "type": "uint256"
        }
      ],
      "stateMutability": "view",
      "type": "function"
    },
    {
      "inputs": [
        {
          "internalType": "uint256",
          "name": "roomId",
          "type": "uint256"
        }
      ],
      "name": "startRoom",
      "outputs": [],
      "stateMutability": "nonpayable",
      "type": "function"
    },
    {
      "inputs": [
        {
          "internalType": "uint256",
          "name": "",
          "type": "uint256"
        },
        {
          "internalType": "address",
          "name": "",
          "type": "address"
        }
      ],
      "name": "voteFor",
      "outputs": [
        {
          "internalType": "address",
          "name": "",
          "type": "address"
        }
      ],
      "stateMutability": "view",
      "type": "function"
    },
    {
      "inputs": [
        {
          "internalType": "uint256",
          "name": "roomId",
          "type": "uint256"
        },
        {
          "internalType": "address",
          "name": "candidate",
          "type": "address"
        }
      ],
      "name": "voteWinner",
      "outputs": [],
      "stateMutability": "nonpayable",
      "type": "function"
    }
  ],
  "bytecode": "0x6080604052348015600f57600080fd5b50611dfe8061001f6000396000f3fe60806040526004361061009c5760003560e01c80639cfc4b45116100645780639cfc4b45146101b1578063b050497c146101cd578063b40e3b8f146101f6578063bbba825714610233578063bea5fcc514610270578063df93a4e3146102ad5761009c565b806343859632146100a1578063460e2049146100de578063510254c11461011b5780636d8a74cb1461014457806379fb2b7214610188575b600080fd5b3480156100ad57600080fd5b506100c860048036038101906100c391906113f2565b6102d8565b6040516100d5919061144d565b60405180910390f35b3480156100ea57600080fd5b5061010560048036038101906101009190611468565b610307565b6040516101129190611553565b60405180910390f35b34801561012757600080fd5b50610142600480360381019061013d91906113f2565b6103ab565b005b34801561015057600080fd5b5061016b60048036038101906101669190611468565b61077f565b60405161017f989796959493929190611593565b60405180910390f35b34801561019457600080fd5b506101af60048036038101906101aa9190611468565b610843565b005b6101cb60048036038101906101c69190611468565b610a28565b005b3480156101d957600080fd5b506101f460048036038101906101ef91906113f2565b610d4a565b005b34801561020257600080fd5b5061021d600480360381019061021891906113f2565b611134565b60405161022a9190611611565b60405180910390f35b34801561023f57600080fd5b5061025a60048036038101906102559190611468565b611176565b604051610267919061162c565b60405180910390f35b34801561027c57600080fd5b50610297600480360381019061029291906113f2565b611324565b6040516102a4919061144d565b60405180910390f35b3480156102b957600080fd5b506102c2611353565b6040516102cf919061162c565b60405180910390f35b60046020528160005260406000206020528060005260406000206000915091509054906101000a900460ff1681565b60606001600083815260200190815260200160002060020180548060200260200160405190810160405280929190818152602001828054801561039f57602002820191906000526020600020905b8160009054906101000a900473ffffffffffffffffffffffffffffffffffffffff1673ffffffffffffffffffffffffffffffffffffffff1681526020019060010190808311610355575b50505050509050919050565b60006001600084815260200190815260200160002090508060040160009054906101000a900460ff16610413576040517f08c379a000000000000000000000000000000000000000000000000000000000815260040161040a906116a4565b60405180910390fd5b8060040160019054906101000a900460ff1615610465576040517f08c379a000000000000000000000000000000000000000000000000000000000815260040161045c90611710565b60405180910390fd5b6002600084815260200190815260200160002060008373ffffffffffffffffffffffffffffffffffffffff1673ffffffffffffffffffffffffffffffffffffffff16815260200190815260200160002060009054906101000a900460ff16610502576040517f08c379a00000000000000000000000000000000000000000000000000000000081526004016104f99061177c565b60405180910390fd5b6000808260020180549050905060005b8181101561061f5760008460020182815481106105325761053161179c565b5b9060005260206000200160009054906101000a900473ffffffffffffffffffffffffffffffffffffffff1690508573ffffffffffffffffffffffffffffffffffffffff166003600089815260200190815260200160002060008373ffffffffffffffffffffffffffffffffffffffff1673ffffffffffffffffffffffffffffffffffffffff16815260200190815260200160002060009054906101000a900473ffffffffffffffffffffffffffffffffffffffff1673ffffffffffffffffffffffffffffffffffffffff160361061157838061060d906117fa565b9450505b508080600101915050610512565b508060028361062e9190611842565b1161066e576040517f08c379a0000000000000000000000000000000000000000000000000000000008152600401610665906118d0565b60405180910390fd5b60018360040160016101000a81548160ff021916908315150217905550838360040160026101000a81548173ffffffffffffffffffffffffffffffffffffffff021916908373ffffffffffffffffffffffffffffffffffffffff160217905550600083600301549050600084600301819055508473ffffffffffffffffffffffffffffffffffffffff166108fc829081150290604051600060405180830381858888f19350505050158015610727573d6000803e3d6000fd5b508473ffffffffffffffffffffffffffffffffffffffff16867f2c35d68fdf40b18e913bb877373b4a4fc67810e2546dc5c9f9208eb8494057cb8360405161076f919061162c565b60405180910390a3505050505050565b6000806000806000806000806000600160008b815260200190815260200160002090508060000160009054906101000a900473ffffffffffffffffffffffffffffffffffffffff168160010154826002018054905083600301548460040160009054906101000a900460ff168560040160019054906101000a900460ff168660040160029054906101000a900473ffffffffffffffffffffffffffffffffffffffff1687600501549850985098509850985098509850985050919395975091939597565b60006001600083815260200190815260200160002090508060000160009054906101000a900473ffffffffffffffffffffffffffffffffffffffff1673ffffffffffffffffffffffffffffffffffffffff163373ffffffffffffffffffffffffffffffffffffffff16146108ec576040517f08c379a00000000000000000000000000000000000000000000000000000000081526004016108e39061193c565b60405180910390fd5b8060040160009054906101000a900460ff161561093e576040517f08c379a0000000000000000000000000000000000000000000000000000000008152600401610935906119a8565b60405180910390fd5b8060040160019054906101000a900460ff1615610990576040517f08c379a000000000000000000000000000000000000000000000000000000000815260040161098790611710565b60405180910390fd5b6002816002018054905010156109db576040517f08c379a00000000000000000000000000000000000000000000000000000000081526004016109d290611a14565b60405180910390fd5b60018160040160006101000a81548160ff021916908315150217905550817e6e0c97de781a7389d44ba8fd35d1467cabb17ed04d038d166d34ab819213f360405160405180910390a25050565b60006001600083815260200190815260200160002090508060040160009054906101000a900460ff1615610a91576040517f08c379a0000000000000000000000000000000000000000000000000000000008152600401610a8890611a80565b60405180910390fd5b8060040160019054906101000a900460ff1615610ae3576040517f08c379a0000000000000000000000000000000000000000000000000000000008152600401610ada90611aec565b60405180910390fd5b6000816001015411610b2a576040517f08c379a0000000000000000000000000000000000000000000000000000000008152600401610b2190611b58565b60405180910390fd5b6002600083815260200190815260200160002060003373ffffffffffffffffffffffffffffffffffffffff1673ffffffffffffffffffffffffffffffffffffffff16815260200190815260200160002060009054906101000a900460ff1615610bc8576040517f08c379a0000000000000000000000000000000000000000000000000000000008152600401610bbf90611bc4565b60405180910390fd5b80600101543414610c0e576040517f08c379a0000000000000000000000000000000000000000000000000000000008152600401610c0590611c30565b60405180910390fd5b60016002600084815260200190815260200160002060003373ffffffffffffffffffffffffffffffffffffffff1673ffffffffffffffffffffffffffffffffffffffff16815260200190815260200160002060006101000a81548160ff02191690831515021790555080600201339080600181540180825580915050600190039060005260206000200160009091909190916101000a81548173ffffffffffffffffffffffffffffffffffffffff021916908373ffffffffffffffffffffffffffffffffffffffff16021790555034816003016000828254610cf09190611c50565b925050819055503373ffffffffffffffffffffffffffffffffffffffff16827fd5b030fc17ee555aeea484ceb134047c9d82176003282c85150c3b2552c6ef6634604051610d3e919061162c565b60405180910390a35050565b60006001600084815260200190815260200160002090508060040160009054906101000a900460ff16610db2576040517f08c379a0000000000000000000000000000000000000000000000000000000008152600401610da9906116a4565b60405180910390fd5b8060040160019054906101000a900460ff1615610e04576040517f08c379a0000000000000000000000000000000000000000000000000000000008152600401610dfb90611aec565b60405180910390fd5b6002600084815260200190815260200160002060003373ffffffffffffffffffffffffffffffffffffffff1673ffffffffffffffffffffffffffffffffffffffff16815260200190815260200160002060009054906101000a900460ff16610ea1576040517f08c379a0000000000000000000000000000000000000000000000000000000008152600401610e9890611cd0565b60405180910390fd5b6002600084815260200190815260200160002060008373ffffffffffffffffffffffffffffffffffffffff1673ffffffffffffffffffffffffffffffffffffffff16815260200190815260200160002060009054906101000a900460ff16610f3e576040517f08c379a0000000000000000000000000000000000000000000000000000000008152600401610f359061177c565b60405180910390fd5b6004600084815260200190815260200160002060003373ffffffffffffffffffffffffffffffffffffffff1673ffffffffffffffffffffffffffffffffffffffff16815260200190815260200160002060009054906101000a900460ff1615610fdc576040517f08c379a0000000000000000000000000000000000000000000000000000000008152600401610fd390611d3c565b60405180910390fd5b816003600085815260200190815260200160002060003373ffffffffffffffffffffffffffffffffffffffff1673ffffffffffffffffffffffffffffffffffffffff16815260200190815260200160002060006101000a81548173ffffffffffffffffffffffffffffffffffffffff021916908373ffffffffffffffffffffffffffffffffffffffff16021790555060016004600085815260200190815260200160002060003373ffffffffffffffffffffffffffffffffffffffff1673ffffffffffffffffffffffffffffffffffffffff16815260200190815260200160002060006101000a81548160ff0219169083151502179055508173ffffffffffffffffffffffffffffffffffffffff163373ffffffffffffffffffffffffffffffffffffffff16847ff6c8f1f54b2f54fb963820203fdef5b9aefb56ae2c4dd8b6133e151791a07f3660405160405180910390a4505050565b60036020528160005260406000206020528060005260406000206000915091509054906101000a900473ffffffffffffffffffffffffffffffffffffffff1681565b60008082116111ba576040517f08c379a00000000000000000000000000000000000000000000000000000000081526004016111b190611da8565b60405180910390fd5b6000805490506000808154809291906111d2906117fa565b91905055506000600160008381526020019081526020016000209050338160000160006101000a81548173ffffffffffffffffffffffffffffffffffffffff021916908373ffffffffffffffffffffffffffffffffffffffff1602179055508381600101819055506000816003018190555060008160040160006101000a81548160ff02191690831515021790555060008160040160016101000a81548160ff02191690831515021790555060008160040160026101000a81548173ffffffffffffffffffffffffffffffffffffffff021916908373ffffffffffffffffffffffffffffffffffffffff1602179055504281600501819055503373ffffffffffffffffffffffffffffffffffffffff16827fac131287fe8417903d89f4eb472bc1d0da81641ef725569346dab6c2879a671786604051611312919061162c565b60405180910390a38192505050919050565b60026020528160005260406000206020528060005260406000206000915091509054906101000a900460ff1681565b60005481565b600080fd5b6000819050919050565b6113718161135e565b811461137c57600080fd5b50565b60008135905061138e81611368565b92915050565b600073ffffffffffffffffffffffffffffffffffffffff82169050919050565b60006113bf82611394565b9050919050565b6113cf816113b4565b81146113da57600080fd5b50565b6000813590506113ec816113c6565b92915050565b6000806040838503121561140957611408611359565b5b60006114178582860161137f565b9250506020611428858286016113dd565b9150509250929050565b60008115159050919050565b61144781611432565b82525050565b6000602082019050611462600083018461143e565b92915050565b60006020828403121561147e5761147d611359565b5b600061148c8482850161137f565b91505092915050565b600081519050919050565b600082825260208201905092915050565b6000819050602082019050919050565b6114ca816113b4565b82525050565b60006114dc83836114c1565b60208301905092915050565b6000602082019050919050565b600061150082611495565b61150a81856114a0565b9350611515836114b1565b8060005b8381101561154657815161152d88826114d0565b9750611538836114e8565b925050600181019050611519565b5085935050505092915050565b6000602082019050818103600083015261156d81846114f5565b905092915050565b61157e816113b4565b82525050565b61158d8161135e565b82525050565b6000610100820190506115a9600083018b611575565b6115b6602083018a611584565b6115c36040830189611584565b6115d06060830188611584565b6115dd608083018761143e565b6115ea60a083018661143e565b6115f760c0830185611575565b61160460e0830184611584565b9998505050505050505050565b60006020820190506116266000830184611575565b92915050565b60006020820190506116416000830184611584565b92915050565b600082825260208201905092915050565b7f726f6f6d206e6f74207374617274656400000000000000000000000000000000600082015250565b600061168e601083611647565b915061169982611658565b602082019050919050565b600060208201905081810360008301526116bd81611681565b9050919050565b7f616c726561647920736574746c65640000000000000000000000000000000000600082015250565b60006116fa600f83611647565b9150611705826116c4565b602082019050919050565b60006020820190508181036000830152611729816116ed565b9050919050565b7f63616e646964617465206e6f7420696e20726f6f6d0000000000000000000000600082015250565b6000611766601583611647565b915061177182611730565b602082019050919050565b6000602082019050818103600083015261179581611759565b9050919050565b7f4e487b7100000000000000000000000000000000000000000000000000000000600052603260045260246000fd5b7f4e487b7100000000000000000000000000000000000000000000000000000000600052601160045260246000fd5b60006118058261135e565b91507fffffffffffffffffffffffffffffffffffffffffffffffffffffffffffffffff8203611837576118366117cb565b5b600182019050919050565b600061184d8261135e565b91506118588361135e565b92508282026118668161135e565b9150828204841483151761187d5761187c6117cb565b5b5092915050565b7f6e6f206d616a6f7269747920666f722063616e64696461746500000000000000600082015250565b60006118ba601983611647565b91506118c582611884565b602082019050919050565b600060208201905081810360008301526118e9816118ad565b9050919050565b7f6f6e6c792063726561746f722063616e20737461727400000000000000000000600082015250565b6000611926601683611647565b9150611931826118f0565b602082019050919050565b6000602082019050818103600083015261195581611919565b9050919050565b7f616c726561647920737461727465640000000000000000000000000000000000600082015250565b6000611992600f83611647565b915061199d8261195c565b602082019050919050565b600060208201905081810360008301526119c181611985565b9050919050565b7f6e656564206174206c65617374203220706c6179657273000000000000000000600082015250565b60006119fe601783611647565b9150611a09826119c8565b602082019050919050565b60006020820190508181036000830152611a2d816119f1565b9050919050565b7f726f6f6d20616c72656164792073746172746564000000000000000000000000600082015250565b6000611a6a601483611647565b9150611a7582611a34565b602082019050919050565b60006020820190508181036000830152611a9981611a5d565b9050919050565b7f726f6f6d20616c726561647920736574746c6564000000000000000000000000600082015250565b6000611ad6601483611647565b9150611ae182611aa0565b602082019050919050565b60006020820190508181036000830152611b0581611ac9565b9050919050565b7f726f6f6d206e6f74206578697374000000000000000000000000000000000000600082015250565b6000611b42600e83611647565b9150611b4d82611b0c565b602082019050919050565b60006020820190508181036000830152611b7181611b35565b9050919050565b7f616c7265616479206a6f696e6564000000000000000000000000000000000000600082015250565b6000611bae600e83611647565b9150611bb982611b78565b602082019050919050565b60006020820190508181036000830152611bdd81611ba1565b9050919050565b7f696e636f7272656374206275792d696e20616d6f756e74000000000000000000600082015250565b6000611c1a601783611647565b9150611c2582611be4565b602082019050919050565b60006020820190508181036000830152611c4981611c0d565b9050919050565b6000611c5b8261135e565b9150611c668361135e565b9250828201905080821115611c7e57611c7d6117cb565b5b92915050565b7f796f7520617265206e6f7420696e207468697320726f6f6d0000000000000000600082015250565b6000611cba601883611647565b9150611cc582611c84565b602082019050919050565b60006020820190508181036000830152611ce981611cad565b9050919050565b7f616c726561647920766f74656400000000000000000000000000000000000000600082015250565b6000611d26600d83611647565b9150611d3182611cf0565b602082019050919050565b60006020820190508181036000830152611d5581611d19565b9050919050565b7f6275792d696e206d757374203e20300000000000000000000000000000000000600082015250565b6000611d92600f83611647565b9150611d9d82611d5c565b602082019050919050565b60006020820190508181036000830152611dc181611d85565b905091905056fea26469706673582212204115613fab9d6670883e65982e5c2d22004d9f7dfd7e0eeac076476618dc5b3f64736f6c634300081c0033",
  "linkReferences": {},
  "deployedLinkReferences": {}
}